:100000000C942A000C9447000C9447000C94470071
:100010000C9447000C9447000C9447000C94470044
:100020000C9447000C9447000C9474020C94250225
:100030000C9447000C9447000C9447000C94470024
:100040000C9447000C9447000C9447000C94470014
:100050000C94470011241FBECFE5D8E0DEBFCDBF12
:1000600010E0A0E6B0E0E2ECF4E102C005900D92F1
:10007000A83EB107D9F720E0A8EEB0E001C01D927C
:10008000A43FB207E1F70E94E1070C945F0A0C94C9
:100090000000813019F130F08230E1F1833009F451
:1000A00055C00895442319F0413069F008952AB3EA
:1000B00081E090E002C0880F991F6A95E2F7809571
:1000C00082238ABB08952AB381E090E002C0880FA2
:1000D000991F6A95E2F7822B8ABB0895442319F091
:1000E000413069F0089527B381E090E002C0880FA5
:1000F000991F6A95E2F78095822387BB089527B3FD
:1001000081E090E002C0880F991F6A95E2F7822B88
:1001100087BB0895442319F0413069F0089524B352
:1001200081E090E002C0880F991F6A95E2F7809500
:10013000822384BB089524B381E090E002C0880F3D
:10014000991F6A95E2F7822B84BB0895442319F026
:10015000413069F0089521B381E090E002C0880F3A
:10016000991F6A95E2F78095822381BB089521B398
:1001700081E090E002C0880F991F6A95E2F7822B18
:1001800081BB0895813019F130F08230E1F1833084
:1001900009F455C00895442319F0413069F00895D9
:1001A0002BB381E090E002C0880F991F6A95E2F7B7
:1001B000809582238BBB08952BB381E090E002C031
:1001C000880F991F6A95E2F7822B8BBB0895442311
:1001D00019F0413069F0089528B381E090E002C041
:1001E000880F991F6A95E2F78095822388BB08954E
:1001F00028B381E090E002C0880F991F6A95E2F76A
:10020000822B88BB0895442319F0413069F008958A
:1002100025B381E090E002C0880F991F6A95E2F74C
:100220008095822385BB089525B381E090E002C0CC
:10023000880F991F6A95E2F7822B85BB08954423A6
:1002400019F0413069F0089522B381E090E002C0D6
:10025000880F991F6A95E2F78095822382BB0895E3
:1002600022B381E090E002C0880F991F6A95E2F7FF
:10027000822B82BB0895813081F028F08230B9F062
:100280008330F9F027C089B390E002C09595879537
:100290006A95E2F7982F91701DC086B390E002C076
:1002A000959587956A95E2F7982F917013C083B35F
:1002B00090E002C0959587956A95E2F7982F917026
:1002C00009C083B390E002C0959587956A95E2F7DF
:1002D000982F9170892F0895813031F0A8F08230E5
:1002E000F9F08330A9F1089583B78F7B83BF83B77B
:1002F000877F83BF613019F481E782BF01C012BEDE
:1003000089B7816089BF089583B78F7B83BF83B727
:10031000886083BF89EF8CBF89B7826089BF0895E9
:1003200083B7806483BF83B7886083BF442319F099
:10033000413041F00DC083B7806183BF83B78062D5
:1003400083BF06C083B78F7E83BF83B7806283BFBE
:1003500083B7806483BF83B7877F83BF442319F04B
:10036000413041F0089583B7806183BF83B78062D5
:1003700083BF089583B78F7E83BF83B7806283BFB7
:1003800008958230F9F028F4882341F0813081F01B
:100390000895833009F1843049F1089583B781606D
:1003A00083BF83B78D7F83BF83B78B7F83BF089560
:1003B00083B78E7F83BF83B7826083BF83B78B7F12
:1003C00083BF089583B7816083BF83B7826083BF93
:1003D00083B78B7F83BF089583B78E7F83BF83B737
:1003E0008D7F83BF83B7846083BF089583B78160A7
:1003F00083BF83B78D7F83BF83B7846083BF089536
:10040000853608F084E6662371F06130E9F4982FB0
:1004100080E064E670E00E94370A61506CBF842F70
:100420000E94C101089564E670E09B01281B310918
:100430005FEF529FC001539F900D11240E94370A15
:100440006CBF842F0E94C10108951F920F920FB6B6
:100450000F9211242F933F934F935F936F937F934A
:100460008F939F93AF93BF93EF93FF938091EA0095
:100470009091EB00A091EC00B091ED000196A11DD0
:10048000B11D8093EA009093EB00A093EC00B09331
:10049000ED004091EE005091EF0060E070E08417B5
:1004A0009507A607B70778F01092EA001092EB00C4
:1004B0001092EC001092ED00E091F200F091F30048
:1004C000309709F00995FF91EF91BF91AF919F91FE
:1004D0008F917F916F915F914F913F912F910F90ED
:1004E0000FBE0F901F9018951F920F920FB60F928C
:1004F00011242F933F934F935F936F937F938F9329
:100500009F93AF93BF93EF93FF938091E8009091F7
:10051000E90001969093E9008093E8002091EE00B5
:100520003091EF008217930758F01092E900109273
:10053000E800E091F000F091F100309709F00995A2
:10054000FF91EF91BF91AF919F918F917F916F91AB
:100550005F914F913F912F910F900FBE0F901F9081
:10056000189541E060E082E00E946C0141E063E0A8
:1005700082E00E94490041E064E082E00E9449007C
:1005800041E065E082E00E94490041E066E082E0EF
:100590000E94490041E067E082E00E94490041E09A
:1005A00062E083E00E94490041E062E081E00E9455
:1005B000490041E066E083E00E94490041E063E0D9
:1005C00081E00E944900089541E061E00E9400023C
:1005D00040E063E082E00E94C20041E064E082E02B
:1005E0000E94C20040E065E082E00E94C20041E05B
:1005F00066E082E00E94C20040E067E082E00E9484
:10060000C20041E062E083E00E94C20040E062E09C
:1006100081E00E94C20041E066E083E00E94C200E7
:10062000089541E061E00E94000240E067E082E05E
:100630000E94C20041E062E083E00E94C20041E00B
:1006400063E082E00E94C20040E064E082E00E9439
:10065000C20040E062E081E00E94C20040E066E04B
:1006600083E00E94C20040E065E082E00E94C20098
:1006700040E066E082E00E94C200089541E061E04F
:100680000E94000240E063E082E00E94C20041E07C
:1006900064E082E00E94C20041E067E082E00E94E4
:1006A000C20040E062E083E00E94C20040E065E0FA
:1006B00082E00E94C20040E066E082E00E94C20048
:1006C00040E062E081E00E94C20040E066E083E03A
:1006D0000E94C200089540E063E082E00E94C200F0
:1006E00040E064E082E00E94C20040E065E082E019
:1006F0000E94C20040E066E082E00E94C20040E04A
:1007000067E082E00E94C20040E062E083E00E9475
:10071000C20040E062E081E00E94C20040E066E08A
:1007200083E00E94C20008958AE50E94C1070895EF
:1007300040E062E080E00E94490040E067E081E044
:100740000E94490040E063E080E00E94490040E0F0
:1007500066E081E00E94490040E061E080E00E94A4
:10076000490040E065E081E00E9449000895CF9390
:10077000DF93EB01813081F018F0823039F011C045
:1007800081E00E94BC05998388830BC082E00E94AF
:10079000BC059983888305C083E00E94BC059983CA
:1007A0008883DF91CF910895CF93DF93EB01813060
:1007B00081F018F0823039F011C065E081E00E94CC
:1007C0003B0188830BC067E081E00E943B01888386
:1007D00005C066E081E00E943B018883DF91CF91F4
:1007E00008950E94B1020E94BB060E94A20780E009
:1007F0000E948F050E9498030E948B050E940306A9
:100800000895CF93DF93CDB7DEB729970FB6F8944D
:10081000DEBF0FBECDBF19821A821B821D821C82D1
:100820001F821E8219861886BE016D5F7F4F81E090
:100830000E94D403BE016F5F7F4F80E00E94D4030B
:10084000BE016E5F7F4F82E00E94D403BE016A5FEB
:100850007F4F81E00E94B703BE016C5F7F4F80E055
:100860000E94B703BE01685F7F4F82E00E94B7031A
:100870008B81811127C09A81911124C082E30E944B
:10088000E4020E946D0688E790E00E94570660E04F
:1008900070E081E090E00E94770684E890E00E949A
:1008A000570629E030E041E050E060E770E080E08A
:1008B00090E00E9481068FE39CE90197F1F700C068
:1008C00000006BC0813039F59A81911124C084E613
:1008D0000E943E030E946D0688E790E00E94570642
:1008E00060E070E081E090E00E9477068DE890E0A3
:1008F0000E94570627E030E041E050E068E670E0F3
:1009000081E090E00E9481068FE39CE90197F1F776
:1009100000C0000042C0811127C08A81813021F5CA
:1009200084E60E9411030E946D0688E790E00E9411
:10093000570660E070E081E090E00E94770684E96D
:1009400090E00E94570626E030E041E050E060E68B
:1009500070E081E090E00E9481068FE39CE90197BE
:10096000F1F700C0000019C00E946D068AE990E00E
:100970000E94570660E070E081E090E00E947706F8
:1009800087EA90E00E9457069FEF28EF85E191509B
:1009900020408040E1F700C0000029960FB6F8948F
:1009A000DEBF0FBECDBFDF91CF91089541E067E07C
:1009B00080E00E94C2002FEF81EE94E02150804041
:1009C0009040E1F700C0000040E067E080E00E9456
:1009D000C2002FEF81EE94E0215080409040E1F77B
:1009E00000C0000041E067E080E00E94C2002FEFFD
:1009F00081EE94E0215080409040E1F700C000007B
:100A000040E067E080E00E94C2002FEF81EE94E0BA
:100A1000215080409040E1F700C0000041E067E0D5
:100A200080E00E94C2002FEF81EE94E021508040D0
:100A30009040E1F700C0000040E067E080E00E94E5
:100A4000C20008950E946B030E946D0687EB90E040
:100A50000E94570660E070E081E090E00E94770617
:100A600083EC90E00E9457062FEF84E39CE0215036
:100A700080409040E1F700C000000E946D068DECC0
:100A800090E00E94570660E070E081E090E00E94F4
:100A900077068BED90E00E9457062FEF84E39CE0F1
:100AA000215080409040E1F700C000000E94D60431
:100AB0000E9494030895CF93C82F482F417060E09F
:100AC00083E00E94C200C1FB442740F961E083E05B
:100AD0000E94C200C2FB442740F963E083E00E9409
:100AE000C200C3FB442740F964E081E00E94C200D9
:100AF000CF91089541E062E082E00E94C2008FE958
:100B00009FE00197F1F700C0000040E062E082E062
:100B10000E94C20008958FB780688FBF089581300A
:100B200021F050F0823079F014C087B18F7787B907
:100B300087B18F7B87B90DC087B18F7787B987B1B0
:100B4000806487B906C087B1806887B987B180643F
:100B500087B986B1816086B986B1826086B986B16F
:100B6000846086B986B1877F86B986B18F7D86B964
:100B700086B1806886B90895883070F497B1907E08
:100B800097B997B1892B87B986B1806486B93699B0
:100B9000FECF84B195B1089580E090E00895CF93A1
:100BA000C82F41E060E082E00E94C20040E061E0C6
:100BB00082E00E94C2008C2F82958F700E945B059C
:100BC0000E947A058C2F0E945B050E947A05CF91C6
:100BD0000895CF93C82F40E060E082E00E94C200F9
:100BE00040E061E082E00E94C2008C2F82958F700D
:100BF0000E945B050E947A058C2F0E945B050E9473
:100C00007A05CF91089541E060E082E00E944900BA
:100C100041E061E082E00E94490041E062E082E060
:100C20000E94490041E060E083E00E94490041E009
:100C300061E083E00E94490041E063E083E00E94BC
:100C4000490041E064E081E00E9449002FE785EB24
:100C500091E0215080409040E1F700C0000040E06A
:100C600060E082E00E94C20040E061E082E00E9419
:100C7000C20082E00E945B050E947A0588E20E9421
:100C8000E90520EF2A95F1F78FE00E94E90580EF52
:100C90008A95F1F781E00E94E9058FE39FE10197D2
:100CA000F1F700C0000086E00E94E90508950F9367
:100CB0001F93CF93009729F40CC00E94CF05CF5FFC
:100CC00002C08C01C0E0F801EC0FF11D80818111A0
:100CD000F4CFCF911F910F91089581E00E94E90513
:100CE0008FE39FE10197F1F700C00000089588238A
:100CF00019F0813029F4605C862F80680E94E90534
:100D00000895EF92FF920F931F93CF93DF938B0180
:100D1000E42ED22F8770F82E90E0880F991F880F4D
:100D2000991F880F991F80640E94E905C0E007C0E1
:100D3000F801EC0FF11D80810E94CF05CF5FC83014
:100D4000B8F3EE2021F081E0E81621F006C080E83B
:100D50008D0F05C080EC8D0F02C080E88D0F0E94C2
:100D6000E9058F2D0E94CF05DF91CF911F910F9143
:100D7000FF90EF90089541E060E081E00E9449001B
:100D800040E061E081E00E944900089540E060E0B9
:100D900081E00E94C2008AE08A95F1F700C041E03C
:100DA00060E081E00E94C20085E38A95F1F70000CF
:100DB00040E060E081E00E94C2000895CF92DF929F
:100DC000EF92FF92CF93DF93EC010E94C606C12CF5
:100DD000D12C760115C08FEFC81AD80AE80AF80A94
:100DE00081E3C81685E7D806E104F10448F080E005
:100DF00090E0A0E8BFEB88839983AA83BB832DC0D2
:100E000061E081E00E943B01882329F3C12CD12CB1
:100E1000760109C08FEFC81AD80AE80AF80A85E0F7
:100E20008A95F1F7000061E081E00E943B018111A9
:100E3000F1CFC701B6010E94130928E23EE74CE05A
:100E40005DE30E94CA0920E030E040E05FE30E94D9
:100E5000CA09688379838A839B83DF91CF91FF904E
:100E6000EF90DF90CF9008954F925F926F927F92B4
:100E7000AF92BF92CF92DF92EF92FF920F931F93A8
:100E8000CF93DF9300D000D0CDB7DEB7082F5B0142
:100E900010E0412C512C320129C0CE0101960E9454
:100EA000DE06C980DA80EB80FC8020E030E0A9011A
:100EB000C701B6010E94C50988236CF0C301B201C5
:100EC0000E941309A70196010E9406080E94E408E7
:100ED0002B013C0101C011502FEF8DEE92E021500B
:100EE00080409040E1F700C000001F5F1017A8F29B
:100EF000C301B2010E9413096B017C01602F70E0F5
:100F000080E090E00E9415099B01AC01C701B60189
:100F10000E947208F50160837183828393830F902E
:100F20000F900F900F90DF91CF911F910F91FF9035
:100F3000EF90DF90CF90BF90AF907F906F905F90D9
:100F40004F90089541E065E083E00E9449008FB52D
:100F500082608FBD8EB588618EBD8FB580688FBD74
:100F60008FB58F7B8FBD8EB582608EBD8EB58E7F27
:100F70008EBD8EB58B7F8EBD8FE39CE997BD86BD00
:100F80000895853B08F084EB682F70E080E090E0E6
:100F90000E9415092AE939E941E351E40E94CA098E
:100FA00020E030E04AE754E40E94060820E030E008
:100FB0004AE754E40E9406080E94E4087BBD6ABD2B
:100FC0000895CF93DF9300D000D0CDB7DEB70E9455
:100FD000F10319821A821B821C82BE016F5F7F4F50
:100FE00083E00E94340769817A818B819C8120E0B3
:100FF00030E040EF51E40E94C50918161CF40E942D
:101000000104EBCF0E942205E8CF5058BB27AA2746
:101010000E941D080C948B090E947D0938F00E94E3
:10102000840920F039F49F3F19F426F40C947A09CE
:101030000EF4E095E7FB0C947409E92F0E949C09DB
:1010400058F3BA17620773078407950720F079F4FD
:10105000A6F50C94BE090EF4E0950B2EBA2FA02D28
:101060000B01B90190010C01CA01A0011124FF2755
:10107000591B99F0593F50F4503E68F11A16F04050
:10108000A22F232F342F4427585FF3CF469537954F
:101090002795A795F0405395C9F77EF41F16BA0B14
:1010A000620B730B840BBAF09150A1F0FF0FBB1FC2
:1010B000661F771F881FC2F70EC0BA0F621F731F0B
:1010C000841F48F4879577956795B795F7959E3F68
:1010D00008F0B0CF9395880F08F09927EE0F9795F9
:1010E000879508950E9486080C948B090E948409B4
:1010F00058F00E947D0940F029F45F3F29F00C94DC
:10110000740951110C94BF090C947A090E949C092E
:1011100068F39923B1F3552391F3951B550BBB2726
:10112000AA2762177307840738F09F5F5F4F220F6B
:10113000331F441FAA1FA9F335D00E2E3AF0E0E862
:1011400032D091505040E695001CCAF72BD0FE2FAC
:1011500029D0660F771F881FBB1F26173707480740
:10116000AB07B0E809F0BB0B802DBF01FF279358F8
:101170005F4F3AF09E3F510578F00C9474090C943F
:10118000BF095F3FE4F3983ED4F386957795679562
:10119000B795F7959F5FC9F7880F911D969587952D
:1011A00097F90895E1E0660F771F881FBB1F62174C
:1011B00073078407BA0720F0621B730B840BBA0B0A
:1011C000EE1F88F7E09508950E94A40988F09F57C4
:1011D00098F0B92F9927B751B0F0E1F0660F771F5B
:1011E000881F991F1AF0BA95C9F714C0B13091F051
:1011F0000E94BE09B1E008950C94BE09672F782FB4
:101200008827B85F39F0B93FCCF386957795679515
:10121000B395D9F73EF490958095709561957F4F81
:101220008F4F9F4F0895E89409C097FB3EF4909527
:101230008095709561957F4F8F4F9F4F9923A9F0AF
:10124000F92F96E9BB279395F6958795779567953E
:10125000B795F111F8CFFAF4BB0F11F460FF1BC082
:101260006F5F7F4F8F4F9F4F16C0882311F096E915
:1012700011C0772321F09EE8872F762F05C06623C3
:1012800071F096E8862F70E060E02AF09A95660F7C
:10129000771F881FDAF7880F9695879597F9089535
:1012A000990F0008550FAA0BE0E8FEEF1616170677
:1012B000E807F907C0F012161306E407F50798F0DF
:1012C000621B730B840B950B39F40A2661F0232BF8
:1012D000242B252B21F408950A2609F4A140A69574
:1012E0008FEF811D811D089597F99F6780E870E059
:1012F00060E008959FEF80EC089500240A9416168C
:10130000170618060906089500240A9412161306F3
:10131000140605060895092E0394000C11F4882381
:1013200052F0BB0F40F4BF2B11F460FF04C06F5F9D
:101330007F4F8F4F9F4F089557FD9058440F551F73
:1013400059F05F3F71F04795880F97FB991F61F047
:101350009F3F79F087950895121613061406551FBE
:10136000F2CF4695F1DF08C0161617061806991F2A
:10137000F1CF86957105610508940895E894BB271F
:1013800066277727CB0197F908950E94500908F442
:101390008FEF08950E94DD090C948B090E947D094E
:1013A00038F00E94840920F0952311F00C94740900
:1013B0000C947A0911240C94BF090E949C0970F3C3
:1013C000959FC1F3950F50E0551F629FF001729FEA
:1013D000BB27F00DB11D639FAA27F00DB11DAA1FF9
:1013E000649F6627B00DA11D661F829F2227B00D46
:1013F000A11D621F739FB00DA11D621F839FA00DD1
:10140000611D221F749F3327A00D611D231F849F20
:10141000600D211D822F762F6A2F11249F57504077
:101420009AF0F1F088234AF0EE0FFF1FBB1F661FF2
:10143000771F881F91505040A9F79E3F510580F0BB
:101440000C9474090C94BF095F3FE4F3983ED4F305
:10145000869577956795B795F795E7959F5FC1F75F
:10146000FE2B880F911D9695879597F9089597FB08
:10147000072E16F4009407D077FD09D00E944B0A7E
:1014800007FC05D03EF4909581959F4F0895709587
:1014900061957F4F0895AA1BBB1B51E107C0AA1F8E
:1014A000BB1FA617B70710F0A61BB70B881F991F05
:1014B0005A95A9F780959095BC01CD010895F894AF
:0214C000FFCF5C
:1014C2000000040C1F0C0400000004061F060400A8
:1014D200040E0E1F04040404446972656374696F88
:1014E2006E3A2000466F727761726420005269671B
:1014F200687420004C65667420004572726F722019
:101502007479706520310052656164696E67207379
:10151200656E736F7273004F62737461636C6520E2
:1015220069730064657465637465642E00506C654C
:101532006173652072656D6F766500746865206FF2
:0815420062737461636C6500C3
:00000001FF
