:100000000C942A000C9447000C9447000C94470071
:100010000C9447000C9447000C9447000C94470044
:100020000C9447000C9447000C947E020C942F0211
:100030000C9447000C9447000C9447000C94470024
:100040000C9447000C9447000C9447000C94470014
:100050000C94470011241FBECFE5D8E0DEBFCDBF12
:1000600010E0A0E6B0E0ECEDF3E102C005900D92E7
:10007000A63FB107D9F721E0A6EFB0E001C01D927D
:10008000A230B207E1F70E946E070C94EC090C94C1
:100090000000813019F130F08230E1F1833009F451
:1000A00055C00895442319F0413069F008952AB3EA
:1000B00081E090E002C0880F991F6A95E2F7809571
:1000C00082238ABB08952AB381E090E002C0880FA2
:1000D000991F6A95E2F7822B8ABB0895442319F091
:1000E000413069F0089527B381E090E002C0880FA5
:1000F000991F6A95E2F78095822387BB089527B3FD
:1001000081E090E002C0880F991F6A95E2F7822B88
:1001100087BB0895442319F0413069F0089524B352
:1001200081E090E002C0880F991F6A95E2F7809500
:10013000822384BB089524B381E090E002C0880F3D
:10014000991F6A95E2F7822B84BB0895442319F026
:10015000413069F0089521B381E090E002C0880F3A
:10016000991F6A95E2F78095822381BB089521B398
:1001700081E090E002C0880F991F6A95E2F7822B18
:1001800081BB0895813019F130F08230E1F1833084
:1001900009F455C00895442319F0413069F00895D9
:1001A0002BB381E090E002C0880F991F6A95E2F7B7
:1001B000809582238BBB08952BB381E090E002C031
:1001C000880F991F6A95E2F7822B8BBB0895442311
:1001D00019F0413069F0089528B381E090E002C041
:1001E000880F991F6A95E2F78095822388BB08954E
:1001F00028B381E090E002C0880F991F6A95E2F76A
:10020000822B88BB0895442319F0413069F008958A
:1002100025B381E090E002C0880F991F6A95E2F74C
:100220008095822385BB089525B381E090E002C0CC
:10023000880F991F6A95E2F7822B85BB08954423A6
:1002400019F0413069F0089522B381E090E002C0D6
:10025000880F991F6A95E2F78095822382BB0895E3
:1002600022B381E090E002C0880F991F6A95E2F7FF
:10027000822B82BB0895813081F028F08230B9F062
:100280008330F9F027C089B390E002C09595879537
:100290006A95E2F7982F91701DC086B390E002C076
:1002A000959587956A95E2F7982F917013C083B35F
:1002B00090E002C0959587956A95E2F7982F917026
:1002C00009C083B390E002C0959587956A95E2F7DF
:1002D000982F9170892F0895813031F0A8F08230E5
:1002E000F9F08330A9F1089583B78F7B83BF83B77B
:1002F000877F83BF613019F481E782BF01C012BEDE
:1003000089B7816089BF089583B78F7B83BF83B727
:10031000886083BF89EF8CBF89B7826089BF0895E9
:1003200083B7806483BF83B7886083BF442319F099
:10033000413041F00DC083B7806183BF83B78062D5
:1003400083BF06C083B78F7E83BF83B7806283BFBE
:1003500083B7806483BF83B7877F83BF442319F04B
:10036000413041F0089583B7806183BF83B78062D5
:1003700083BF089583B78F7E83BF83B7806283BFB7
:1003800008958230F9F028F4882341F0813081F01B
:100390000895833009F1843049F1089583B781606D
:1003A00083BF83B78D7F83BF83B78B7F83BF089560
:1003B00083B78E7F83BF83B7826083BF83B78B7F12
:1003C00083BF089583B7816083BF83B7826083BF93
:1003D00083B78B7F83BF089583B78E7F83BF83B737
:1003E0008D7F83BF83B7846083BF089583B78160A7
:1003F00083BF83B78D7F83BF83B7846083BF089536
:10040000853608F084E6662371F06130E9F4982FB0
:1004100080E064E670E00E94C40961506CBF842FE4
:100420000E94C101089564E670E09B01281B310918
:100430005FEF529FC001539F900D11240E94C40989
:100440006CBF842F0E94C101089583B78E7F83BF44
:1004500083B78D7F83BF83B78B7F83BF08951F9240
:100460000F920FB60F9211242F933F934F935F93E8
:100470006F937F938F939F93AF93BF93EF93FF936C
:100480008091F8009091F900A091FA00B091FB00E2
:100490000196A11DB11D8093F8009093F900A093DF
:1004A000FA00B093FB004091FC005091FD0060E029
:1004B00070E084179507A607B70778F01092F80048
:1004C0001092F9001092FA001092FB00E0910001E6
:1004D000F0910101309709F00995FF91EF91BF91DB
:1004E000AF919F918F917F916F915F914F913F91CC
:1004F0002F910F900FBE0F901F9018951F920F9283
:100500000FB60F9211242F933F934F935F936F93E6
:100510007F938F939F93AF93BF93EF93FF938091BC
:10052000F6009091F70001969093F7008093F60003
:100530002091FC003091FD008217930758F0109233
:10054000F7001092F600E091FE00F091FF00309766
:1005500009F00995FF91EF91BF91AF919F918F9114
:100560007F916F915F914F913F912F910F900FBEAF
:100570000F901F90189541E060E082E00E946C01AE
:1005800041E063E082E00E94490041E064E082E0F3
:100590000E94490041E065E082E00E94490041E09C
:1005A00066E082E00E94490041E067E082E00E944C
:1005B000490041E062E083E00E94490041E062E0DE
:1005C00081E00E94490041E066E083E00E9449002A
:1005D00041E063E081E00E944900089540E061E06D
:1005E0000E94000240E063E082E00E94C20041E01D
:1005F00064E082E00E94C20040E065E082E00E9488
:10060000C20041E066E082E00E94C20040E067E094
:1006100082E00E94C20041E062E083E00E94C200EA
:1006200040E062E081E00E94C20041E066E083E0D9
:100630000E94C200089540E061E00E94000240E094
:1006400067E082E00E94C20041E062E083E00E9435
:10065000C20041E063E082E00E94C20040E064E04A
:1006600082E00E94C20040E062E081E00E94C2009D
:1006700040E066E083E00E94C20040E065E082E086
:100680000E94C20040E066E082E00E94C20008953D
:1006900040E061E00E94000240E063E082E00E94EE
:1006A000C20041E064E082E00E94C20041E067E0F5
:1006B00082E00E94C20040E062E083E00E94C2004B
:1006C00040E065E082E00E94C20040E066E082E037
:1006D0000E94C20040E062E081E00E94C20040E06F
:1006E00066E083E00E94C20008950E94250240E077
:1006F00063E082E00E94C20040E064E082E00E9489
:10070000C20040E065E082E00E94C20040E066E096
:1007100082E00E94C20040E067E082E00E94C200E6
:1007200040E062E083E00E94C20040E062E081E0DD
:100730000E94C20040E066E083E00E94C20008958B
:1007400040E062E080E00E94490040E067E081E034
:100750000E94490040E063E080E00E94490040E0E0
:1007600066E081E00E94490040E061E080E00E9494
:10077000490040E065E081E00E9449000895CF9380
:10078000DF93EB01813081F018F0823039F011C035
:1007900065E081E00E943B0188830BC067E081E057
:1007A0000E943B01888305C066E081E00E943B0116
:1007B0008883DF91CF9108950E94BB020E94680652
:1007C0000E944F070E94A0030E9478050E94B00576
:1007D0000E941A0688E790E00E9404062FEF89EF36
:1007E00090E0215080409040E1F700C0000088ED8B
:1007F00090E00E9404062FEF89EF90E021508040A6
:100800009040E1F700C0000088ED90E00E940406EF
:100810002FEF89EF90E0215080409040E1F700C039
:10082000000088ED90E00E9404062FEF89EF90E031
:10083000215080409040E1F700C0000082E890E045
:100840000E94040641E067E080E00E9449000895AC
:10085000CF93DF9300D01F92CDB7DEB719821A82F3
:100860001B82BE016D5F7F4F81E00E94BF03BE010E
:100870006F5F7F4F80E00E94BF03BE016E5F7F4FBE
:1008800082E00E94BF038B81811121C09A81911166
:100890001EC084E60E94EE020E941A0685E890E0DF
:1008A0000E94040660E070E081E090E00E9424066F
:1008B00081E990E00E94040629E030E041E050E048
:1008C00060E770E080E090E00E942E0658C0813022
:1008D00009F59A8191111EC084E60E9448030E9486
:1008E0001A0685E890E00E94040660E070E081E06E
:1008F00090E00E9424068AE990E00E94040627E026
:1009000030E041E050E068E670E081E090E00E9475
:100910002E0635C0811121C08A818130F1F484E630
:100920000E941B030E941A0685E890E00E940406BC
:1009300060E070E081E090E00E94240681EA90E0AF
:100940000E94040626E030E041E050E060E670E0FE
:1009500081E090E00E942E0612C00E9475030E9462
:100960001A0687EA90E00E94040660E070E081E0E9
:1009700090E00E94240684EB90E00E9404060F9011
:100980000F900F90DF91CF91089541E067E080E0F4
:100990000E94C2002FEF81EE94E0215080409040F1
:1009A000E1F700C0000040E067E080E00E94C20084
:1009B0002FEF81EE94E0215080409040E1F700C09D
:1009C000000041E067E080E00E94C2002FEF81EE6E
:1009D00094E0215080409040E1F700C0000040E0EA
:1009E00067E080E00E94C2002FEF81EE94E021508A
:1009F00080409040E1F700C0000041E067E080E007
:100A00000E94C2002FEF81EE94E021508040904080
:100A1000E1F700C0000040E067E080E00E94C20013
:100A200008950E9475030E941A0684EC90E00E94CB
:100A3000040660E070E081E090E00E94240680ED12
:100A400090E00E9404062FEF88EF95E1215080404E
:100A50009040E1F700C000000E941A068AED90E085
:100A60000E94040660E070E081E090E00E942406AD
:100A700088EE90E00E9404062FEF84E39CE0215072
:100A800080409040E1F700C000000E94C504089536
:100A9000CF93C82F482F417060E083E00E94C200CE
:100AA000C1FB442740F961E083E00E94C200C2FB21
:100AB000442740F963E083E00E94C200C3FB44275F
:100AC00040F964E081E00E94C200CF91089541E0C6
:100AD00062E082E00E94C2008FE99FE00197F1F797
:100AE00000C0000040E062E082E00E94C200089581
:100AF0008FB780688FBF0895CF93C82F41E060E023
:100B000082E00E94C20040E061E082E00E94C200F8
:100B10008C2F82958F700E9448050E9467058C2F4C
:100B20000E9448050E946705CF910895CF93C82F72
:100B300040E060E082E00E94C20040E061E082E0CC
:100B40000E94C2008C2F82958F700E9448050E94DF
:100B500067058C2F0E9448050E946705CF91089574
:100B600041E060E082E00E94490041E061E082E013
:100B70000E94490041E062E082E00E94490041E0B9
:100B800060E083E00E94490041E061E083E00E9470
:100B9000490041E063E083E00E94490041E064E0F5
:100BA00081E00E9449002FE785EB91E021508040D1
:100BB0009040E1F700C0000040E060E082E00E9469
:100BC000C20040E061E082E00E94C20082E00E9438
:100BD00048050E94670588E20E94960520EF2A9545
:100BE000F1F78FE00E94960580EF8A95F1F781E09A
:100BF0000E9496058FE39FE10197F1F700C0000086
:100C000086E00E94960508950F931F93CF93009757
:100C100029F40CC00E947C05CF5F02C08C01C0E0AB
:100C2000F801EC0FF11D80818111F4CFCF911F915C
:100C30000F91089581E00E9496058FE39FE101974F
:100C4000F1F700C000000895882319F0813029F4DD
:100C5000605C862F80680E9496050895EF92FF924F
:100C60000F931F93CF93DF938B01E42ED22F8770C6
:100C7000F82E90E0880F991F880F991F880F991FF1
:100C800080640E949605C0E007C0F801EC0FF11DDA
:100C900080810E947C05CF5FC830B8F3EE2021F040
:100CA00081E0E81621F006C080E88D0F05C080ECD9
:100CB0008D0F02C080E88D0F0E9496058F2D0E9437
:100CC0007C05DF91CF911F910F91FF90EF900895D8
:100CD00041E060E081E00E94490040E061E081E0A5
:100CE0000E944900089540E060E081E00E94C20057
:100CF0008AE08A95F1F700C041E060E081E00E945F
:100D0000C20085E38A95F1F7000040E060E081E0F1
:100D10000E94C2000895CF92DF92EF92FF92CF938C
:100D2000DF93EC010E947306C12CD12C760115C013
:100D30008FEFC81AD80AE80AF80A81E3C81685E7CF
:100D4000D806E104F10448F080E090E0A0E8BFEBB1
:100D500088839983AA83BB832DC061E081E00E94D0
:100D60003B01882329F3C12CD12C760109C08FEFD8
:100D7000C81AD80AE80AF80A85E08A95F1F700004F
:100D800061E081E00E943B018111F1CFC701B60112
:100D90000E94A00828E23EE74CE05DE30E9457096C
:100DA00020E030E040E05FE30E94570968837983E8
:100DB0008A839B83DF91CF91FF90EF90DF90CF905C
:100DC00008954F925F926F927F92AF92BF92CF92AF
:100DD000DF92EF92FF920F931F93CF93DF9300D098
:100DE00000D0CDB7DEB7082F5B0110E0412C512CAD
:100DF000320129C0CE0101960E948B06C980DA809B
:100E0000EB80FC8020E030E0A901C701B6010E9420
:100E1000520988236CF0C301B2010E94A008A70107
:100E200096010E9493070E9471082B013C0101C0AA
:100E300011502FEF8DEE92E0215080409040E1F76D
:100E400000C000001F5F1017A8F2C301B2010E948A
:100E5000A0086B017C01602F70E080E090E00E94B0
:100E6000A2089B01AC01C701B6010E94FF07F50172
:100E700060837183828393830F900F900F900F9004
:100E8000DF91CF911F910F91FF90EF90DF90CF9066
:100E9000BF90AF907F906F905F904F90089541E02A
:100EA00065E083E00E9449008FB582608FBD8EB5FA
:100EB00088618EBD8FB580688FBD8FB58F7B8FBDEC
:100EC0008EB582608EBD8EB58E7F8EBD8EB58B7FCA
:100ED0008EBD8FE39CE997BD86BD0895CF93DF93C8
:100EE00000D000D0CDB7DEB70E94DC0319821A8291
:100EF0001B821C82BE016F5F7F4F81E00E94E10672
:100F000069817A818B819C8120E030E040E451E46A
:100F10000E94520918161CF40E942804EBCF0E946C
:100F20001105E8CF5058BB27AA270E94AA070C94A6
:100F300018090E940A0938F00E94110920F039F4BA
:100F40009F3F19F426F40C9407090EF4E095E7FB93
:100F50000C940109E92F0E94290958F3BA17620776
:100F600073078407950720F079F4A6F50C944B09D4
:100F70000EF4E0950B2EBA2FA02D0B01B9019001B4
:100F80000C01CA01A0011124FF27591B99F0593FF8
:100F900050F4503E68F11A16F040A22F232F342F40
:100FA0004427585FF3CF469537952795A795F0408E
:100FB0005395C9F77EF41F16BA0B620B730B840BA3
:100FC000BAF09150A1F0FF0FBB1F661F771F881F5B
:100FD000C2F70EC0BA0F621F731F841F48F48795B3
:100FE00077956795B795F7959E3F08F0B0CF9395A5
:100FF000880F08F09927EE0F9795879508950E941E
:1010000013080C9418090E94110958F00E940A094B
:1010100040F029F45F3F29F00C94010951110C9420
:101020004C090C9407090E94290968F39923B1F32C
:10103000552391F3951B550BBB27AA2762177307FE
:10104000840738F09F5F5F4F220F331F441FAA1F92
:10105000A9F335D00E2E3AF0E0E832D0915050404E
:10106000E695001CCAF72BD0FE2F29D0660F771FFC
:10107000881FBB1F261737074807AB07B0E809F0E2
:10108000BB0B802DBF01FF2793585F4F3AF09E3F67
:10109000510578F00C9401090C944C095F3FE4F37E
:1010A000983ED4F3869577956795B795F7959F5FAA
:1010B000C9F7880F911D9695879597F90895E1E0F6
:1010C000660F771F881FBB1F621773078407BA0755
:1010D00020F0621B730B840BBA0BEE1F88F7E095B0
:1010E00008950E94310988F09F5798F0B92F9927E9
:1010F000B751B0F0E1F0660F771F881F991F1AF003
:10110000BA95C9F714C0B13091F00E944B09B1E013
:1011100008950C944B09672F782F8827B85F39F012
:10112000B93FCCF3869577956795B395D9F73EF49B
:1011300090958095709561957F4F8F4F9F4F089543
:10114000E89409C097FB3EF4909580957095619561
:101150007F4F8F4F9F4F9923A9F0F92F96E9BB2717
:101160009395F695879577956795B795F111F8CF93
:10117000FAF4BB0F11F460FF1BC06F5F7F4F8F4FFE
:101180009F4F16C0882311F096E911C0772321F0F4
:101190009EE8872F762F05C0662371F096E8862F8C
:1011A00070E060E02AF09A95660F771F881FDAF7E3
:1011B000880F9695879597F90895990F0008550F10
:1011C000AA0BE0E8FEEF16161706E807F907C0F0CD
:1011D00012161306E407F50798F0621B730B840BD5
:1011E000950B39F40A2661F0232B242B252B21F4AF
:1011F00008950A2609F4A140A6958FEF811D811D4F
:10120000089597F99F6780E870E060E008959FEF88
:1012100080EC089500240A9416161706180609068D
:10122000089500240A94121613061406050608955C
:10123000092E0394000C11F4882352F0BB0F40F4E4
:10124000BF2B11F460FF04C06F5F7F4F8F4F9F4F24
:10125000089557FD9058440F551F59F05F3F71F0A6
:101260004795880F97FB991F61F09F3F79F087950D
:101270000895121613061406551FF2CF4695F1DF96
:1012800008C0161617061806991FF1CF8695710526
:10129000610508940895E894BB2766277727CB015A
:1012A00097F908950E94DD0808F48FEF08950E94D1
:1012B0006A090C9418090E940A0938F00E94110961
:1012C00020F0952311F00C9401090C9407091124C6
:1012D0000C944C090E94290970F3959FC1F3950F56
:1012E00050E0551F629FF001729FBB27F00DB11DAA
:1012F000639FAA27F00DB11DAA1F649F6627B00D3A
:10130000A11D661F829F2227B00DA11D621F739F22
:10131000B00DA11D621F839FA00D611D221F749F30
:101320003327A00D611D231F849F600D211D822F77
:10133000762F6A2F11249F5750409AF0F1F088239E
:101340004AF0EE0FFF1FBB1F661F771F881F9150CB
:101350005040A9F79E3F510580F00C9401090C9470
:101360004C095F3FE4F3983ED4F3869577956795F3
:10137000B795F795E7959F5FC1F7FE2B880F911DF5
:101380009695879597F9089597FB072E16F4009484
:1013900007D077FD09D00E94D80907FC05D03EF49C
:1013A000909581959F4F0895709561957F4F089511
:1013B000AA1BBB1B51E107C0AA1FBB1FA617B7077B
:1013C00010F0A61BB70B881F991F5A95A9F7809597
:0C13D0009095BC01CD010895F894FFCF6A
:1013DC000000040C1F0C0400000004061F0604008F
:1013EC00040E0E1F040404045374617274696E6756
:1013FC002E002E2100446972656374696F6E3A2069
:10140C0000466F72776172642000526967687420BD
:10141C00004C65667420004572726F72207479708E
:10142C006520310052656164696E672073656E7367
:10143C006F7273004F62737461636C652069730023
:10144C0064657465637465642E00506C65617365C6
:10145C002072656D6F766500746865206F627374B9
:06146C0061636C650000E5
:00000001FF
